Creation Time:2019/09/19 11:09:12 
Firmware Ver:1.0.251 
Device Type:0x83
Device Name:AC7000-AG-22
Segment Num:1
Segment Name:CONTROL
Board List:0
:020000040800F2
:1000000000150020992600083B0E00083D0E000850
:10001000410E0008450E0008490E000800000000CF
:100020000000000000000000000000004D0E00086D
:100030004F0E000800000000510E0008290B0008B8
:10004000AF260008AF260008AF260008AF2600083C
:10005000AF260008AF260008AF260008AF2600082C
:10006000AF260008AF260008AF260008AF2600081C
:10007000AF260008AF260008AF260008AF2600080C
:10008000AF260008AF260008AF260008AF260008FC
:10009000AF260008AF260008AF260008AF260008EC
:1000A000AF260008AF260008AF260008AF260008DC
:1000B000550E0008AF260008610E0008AF260008A4
:1000C000AF260008AF260008AF260008AF260008BC
:1000D000AF260008350B0008D70B0008790C000884
:1000E000AF260008AF260008AF2600080000000079
:1000F0000000000000000000000000000000000000
:100100000000000000000000AF260008AF26000835
:100110001B0D0008BD0D0008AF260008AF26000823
:10012000AF260008AF260008AF260008AF2600085B
:10013000AF260008AF260008AF260008AF2600084B
:10014000AF260008AF260008AF260008AF2600083B
:1001500000F002F800F03AF80AA090E8000C82449F
:100160008344AAF10107DA4501D100F02FF8AFF27C
:10017000090EBAE80F0013F0010F18BFFB1A43F085
:1001800001031847183D0000383D0000103A24BF15
:1001900078C878C1FAD8520724BF30C830C144BFEC
:1001A00004680C607047000000230024002500262E
:1001B000103A28BF78C1FBD8520728BF30C148BFCA
:1001C0000B6070471FB51FBD10B510BD03F02FFEAB
:1001D0001146FFF7F7FF03F0B7F803F04DFE03B445
:1001E000FFF7F2FF03BC03F051FE0000EFF30980BC
:1001F000704780F309887047EFF30880704780F3F9
:100200000888704740BA7047C0BA704771B67047E7
:1002100061B6704701460020FE4A106800F03800C1
:10022000084310607047FB49096821F00801F94A4A
:10023000116011460968014311607047F54909686A
:1002400021F01001F34A1160114609680143116061
:100250007047F148EF494860F04848607047EE4801
:10026000EC494860ED4848607047EA48006940F052
:100270008000E84908617047E648006940F0800066
:10028000E449086170470420E249C96811F0010F90
:1002900001D001200EE0DF49C96811F0040F01D040
:1002A000022007E0DB49C96811F0100F01D00320DC
:1002B00000E00420704700B502460423FFF7E3FF87
:1002C000034603E0FFF7DFFF0346521E012B01D177
:1002D000002AF7D102B90523184600BD30B50446FF
:1002E00004254FF43020FFF7E6FF0546042D17D113
:1002F000C848006940F00200C649086108464461E8
:10030000006940F0400008614FF43020FFF7D3FF50
:100310000546C048006941F6FD710840BD490861C5
:10032000284630BD10B504244FF43020FFF7C3FF3A
:100330000446042C16D1B748006940F00400B549C2
:1003400008610846006940F0400008614FF4302021
:10035000FFF7B1FF0446AF48006941F6FB71084062
:10036000AC490861204610BD00B502460423FFF7E2
:100370008AFF034603E0FFF786FF0346521E012B68
:1003800001D1002AF7D102B90523184600BD10B5E6
:1003900004244FF43020FFF7E7FF0446042C16D165
:1003A0009C48006940F004009A49086108460069C9
:1003B00040F0400008614FF43020FFF7D5FF0446BD
:1003C0009448006941F6FB71084092490861204653
:1003D00010BD00208F49C96911F0020F01D0012022
:1003E00000E00020704730B5A5250424FFF7F1FF99
:1003F00000B100254FF43020FFF75DFF0446042CC8
:100400003AD18548834988608448886008460069F5
:1004100040F0200008610846006940F04000086193
:100420004FF43020FFF747FF0446042C1BD17948D6
:10043000006941F6DF7108407649086108460069A5
:1004400040F01000086176480580E002FFF733FFB6
:100450000446052C10D06F48006941F6EF71084042
:100460006C49086108E0052C06D06A48006941F62D
:10047000EF71084067490861204630BD78B50646EF
:100480000C46042500200090E802FFF714FF054603
:10049000042D24D15F48006940F001005D490861E6
:1004A0003480E802FFF707FF0546042D10D1B01C89
:1004B0000090200C00990880E802FFF7FCFE05463A
:1004C0005448006941F6FE7108405249086106E04F
:1004D0005048006941F6FE7108404E4908612846BF
:1004E00078BD70B504460D460426F002FFF7E3FE22
:1004F0000646042E11D14748006940F001004549E5
:1005000008612580F002FFF7D6FE064641480069E3
:1005100041F6FE7108403F490861304670BD70B534
:1005200005460E460424E002FFF7C5FE0446042CEF
:1005300017D13948374988603848886008460069CB
:1005400040F0100008612E80E002FFF7B4FE044680
:10055000052C06D02F48006941F6EF7108402D495F
:100560000861204670BD2DE9F04304464FF6FF7642
:100570003746B046B1460425E443E6B2C4F3072744
:10058000C4F307484FEA1469E802FFF794FE0546F2
:10059000042D49D120481F498860204888600846BA
:1005A000006940F010000861FF2E06D01C4808309A
:1005B0000680E802FFF77FFE0546042D08D1FF2FD5
:1005C00006D017480A300780E802FFF774FE054698
:1005D000042D0AD1B8F1FF0F07D011480C30A0F854
:1005E0000080E802FFF767FE0546042D0AD1B9F145
:1005F000FF0F07D00A480E30A0F80090E802FFF77E
:100600005AFE0546052D0FD00248006941F6EF71EC
:10061000084007E00020024023016745AB89EFCD89
:1006200000F8FF1F664908612846BDE8F08330B531
:10063000054604244FF43020FFF73DFE0446042C09
:1006400041D160485E4988605F488860084600691B
:1006500040F0200008610846006940F04000086151
:100660004FF43020FFF727FE0446042C22D15448D3
:10067000006941F6DF710840514908610846006988
:1006800040F0100008611DB100205049088002E0D0
:10069000A5204E4908804FF43020FFF70CFE044699
:1006A000052C10D04648006941F6EF7108404449D6
:1006B000086108E0052C06D04148006941F6DF7169
:1006C00008403F490861204630BDF0B505460E465A
:1006D000174604243B483A4988603B488860E0025A
:1006E000FFF7E9FD0446042C19D13548006940F0B4
:1006F00010003349086147F0F8003043284333497C
:10070000891C0880E002FFF7D6FD0446052C06D0C0
:100710002B48006941F6EF710840294908612046DD
:10072000F0BD2748C069800870472548006A7047B7
:1007300000202349096811F0200F01D0012000E0BA
:100740000020704729B11E4A126902431C4B1A61EE
:1007500004E01B4A12698243194B1A617047014633
:100760000020012908D1164AD26912F0010F01D0E8
:10077000012008E0002006E0114AD2680A4201D0B8
:10078000012000E0002070470D49C8607047042038
:100790000B49C96811F0010F01D001200EE0084992
:1007A000C96811F0040F01D0022007E00449C968AC
:1007B00011F0100F01D0032000E00420704700006A
:1007C0000020024023016745AB89EFCD00F8FF1FF1
:1007D00010B50446CA48844208D10121042000F023
:1007E0009DFD0021042000F099FD46E0C5488442AB
:1007F00008D10121082000F091FD0021082000F01F
:100800008DFD3AE0C048844208D10121102000F05B
:1008100085FD0021102000F081FD2EE0BB488442C0
:1008200008D10121202000F079FD0021202000F0D6
:1008300075FD22E0B648844208D10121402000F035
:100840006DFD0021402000F069FD16E0B1488442B2
:1008500008D10121802000F061FD0021802000F0FE
:100860005DFD0AE0AC48844207D10121801500F00B
:1008700055FD0021A01500F051FD10BD10B501215E
:10088000084600F04BFD0021012000F047FD10BD9F
:100890002DE9F04102460025002600200023002417
:1008A000002791F803C00CF00F0591F803C01CF06D
:1008B000100F03D091F802C04CEA050591F800C072
:1008C000BCF1000F31D0146800202BE04FF0010C78
:1008D0000CFA00F3B1F800C00CEA03069E4220D1E6
:1008E00083004FF00F0C0CFA03F7BC4305FA03FC2E
:1008F0004CEA040491F803C0BCF1280F06D14FF074
:10090000010C0CFA00FCC2F814C00AE091F803C014
:10091000BCF1480F05D14FF0010C0CFA00FCC2F8F5
:1009200010C0401C0828D1D31460B1F800C0BCF13D
:10093000FF0F34DD546800202EE000F1080C4FF06A
:10094000010808FA0CF3B1F800C00CEA03069E4255
:1009500021D183004FF00F0C0CFA03F7BC4305FACA
:1009600003FC4CEA040491F803C0BCF1280F05D144
:1009700000F1080C08FA0CF8C2F8148091F803C0D2
:10098000BCF1480F07D100F1080C4FF0010808FA3C
:100990000CF8C2F81080401C0828CED35460BDE883
:1009A000F0814FF6FF710180022181700421C17036
:1009B00070470246002093680B4201D0012000E0FE
:1009C000002070470146886880B2704702460020C8
:1009D000D3680B4201D0012000E00020704701469F
:1009E000C86880B2704701617047416170470AB1C1
:1009F000016100E041617047C16070474FF480328F
:100A00000A4382618161826182698269704702461C
:100A10000020424B18684FF68073184040EA0210DD
:100A200008433E4B186070473D49C8617047F0B5B8
:100A30000A46002300240021002500F00046B6F1FC
:100A4000004F02D1354EF16901E0344E7168C0F3B8
:100A5000034583B200F44016B6F5401F08D121F0DB
:100A600070612E4E766826F070662C4F7E6012E024
:100A700000F48016B6F5801F06D1032606FA05F4A9
:100A8000A14341F0706106E0460D360103FA06F617
:100A9000B14341F0706122B1460D360103FA06F60A
:100AA000314300F00046B6F1004F02D11B4EF16118
:100AB00001E01A4E7160F0BD30B500228B071C0FAB
:100AC0000F2303FA04F2154B08338C1053F824302B
:100AD0009343124C08348D1044F8253023468C1073
:100AE00053F824308C07240F00FA04F423430B4CF2
:100AF00008348D1044F8253030BD0A49086070472D
:100B000000080140000C01400010014000140140A9
:100B100000180140001C014000200140000001407D
:100B200000002042DC002042D4480068401CD34929
:100B30000860704738B540F22551D14800F0ECFD0F
:100B400060B1CF4800F068FD0446E1B2002002F039
:100B5000F5FE40F22551CA4800F008FE40F2266139
:100B6000C74800F0D9FD70B16946002002F030FEA0
:100B700020B19DF80010C24800F04AFD40F2266105
:100B8000BF4800F0F3FD0821BD4800F0AFFD01288B
:100B900006D10821BA4800F0B6FDB94800F03CFD86
:100BA0000421B74800F0A2FD012806D10421B44871
:100BB00000F0A9FDB24800F02FFD0221B04800F07E
:100BC00095FD012806D10221AD4800F09CFDAC48FE
:100BD00000F022FD38BD38B540F22551A94800F09B
:100BE0009BFD60B1A74800F017FD0446E1B201206B
:100BF00002F0A4FE40F22551A24800F0B7FD40F2F9
:100C00002661A04800F088FD70B16946012002F01D
:100C1000DFFD20B19DF800109A4800F0F9FC40F289
:100C20002661984800F0A2FD0821964800F05EFD7C
:100C3000012806D10821934800F065FD914800F095
:100C4000EBFC04218F4800F051FD012806D104215E
:100C50008C4800F058FD8B4800F0DEFC02218948EA
:100C600000F044FD012806D10221864800F04BFD2A
:100C7000844800F0D1FC38BD38B540F22551824897
:100C800000F04AFD60B1804800F0C6FC0446E1B2C5
:100C9000022002F053FE40F225517B4800F066FD31
:100CA00040F22661784800F037FD70B169460220B5
:100CB00002F08EFD20B19DF80010734800F0A8FCF2
:100CC00040F22661704800F051FD08216E4800F0A6
:100CD0000DFD012806D108216B4800F014FD6A487B
:100CE00000F09AFC0421684800F000FD012806D1BC
:100CF0000421654800F007FD634800F08DFC0221E7
:100D0000614800F0F3FC012806D102215E4800F0A2
:100D1000FAFC5D4800F080FC38BD38B540F2255142
:100D20005A4800F0F9FC60B1584800F075FC0446E0
:100D3000E1B2032002F002FE40F22551534800F0D8
:100D400015FD40F22661514800F0E6FC70B169469D
:100D5000032002F03DFD20B19DF800104B4800F04B
:100D600057FC40F22661494800F000FD0821474841
:100D700000F0BCFC012806D10821444800F0C3FC67
:100D8000424800F049FC0421404800F0AFFC012833
:100D900006D104213D4800F0B6FC3C4800F03CFC84
:100DA00002213A4800F0A2FC012806D1022137486E
:100DB00000F0A9FC354800F02FFC38BD10B540F21A
:100DC0002551334800F0A8FC20B140F225513048AD
:100DD00000F0CCFC40F226612D4800F09DFC20B1D3
:100DE00040F226612A4800F0C1FC0821284800F0A2
:100DF0007DFC012806D10821254800F084FC244808
:100E000000F00AFC0421224800F070FC012806D101
:100E100004211F4800F077FC1D4800F0FDFB022173
:100E20001B4800F063FC012806D10221184800F09D
:100E30006AFC174800F0F0FB10BD704700BFFEE7EA
:100E400000BFFEE700BFFEE700BFFEE77047704748
:100E50007047704710B50121880701F008FC10BDEC
:100E600010B501210B4801F002FC28B1012109480D
:100E700001F00EFC01F00EFF10BD00001400002078
:100E8000003801400044004000480040004C004051
:100E90000050004000080040F948006840F00100A0
:100EA000F749086008464068F6490840F449486038
:100EB00008460068F4490840F1490860084600689F
:100EC00020F4802008600846406820F4FE00486056
:100ED0000846006820F0A05008604FF47F0088604A
:100EE0000020C8627047E649096821F48031E44A6D
:100EF00011601146096821F480211160B0F5803F2E
:100F000003D0B0F5802F0ED106E0DD49096841F429
:100F10008031DB4A116007E0D949096841F4A0211A
:100F2000D74A116000E000BF00BF704710B501460E
:100F30000022002300204A11012A02D1D04C23684C
:100F400006E0022A02D1CE4C236A01E0CC4C636A4F
:100F500001F01F02012494401C4201D0012000E056
:100F6000002010BD38B5002000900024002500BFEF
:100F70003120FFF7DBFF05460098401C00900098E9
:100F8000B0F5A06F01D0002DF2D03120FFF7CEFFD9
:100F900008B1012400E00024204638BD01460020AD
:100FA000B74A106820F0F80040EAC10010607047AE
:100FB000B6490860704702460020B14B586820F4DB
:100FC000741042EA01031843AD4B58607047AF49B3
:100FD0000866704702460020A94BD86AAC4B1840FF
:100FE00042EA01031843A64BD8627047014600202D
:100FF000A34AD06A20F0F0000843D062704701464F
:1010000000209F4AD06A20F470600843D062704785
:101010009E498866704701460020994AD06A20F4AC
:1010200070400843D062704798490867704701468E
:101030000020934A506820F0030008435060704736
:101040008F48406800F00C007047014600208C4A31
:10105000506820F0F00008435060704701460020BF
:10106000874A506820F4E0600843506070470146AA
:101070000020834A506820F4605040EAC10050606C
:10108000704729B17E4A527A02437D4B5A7204E07E
:101090007B4A527A82437A4B5A7270477D49086084
:1010A000704701460020764A506820F440400843CB
:1010B000506070477849086070477749091D08609B
:1010C00070470021754A11706D4A82F8201001287E
:1010D00002D0042808D103E00121704A117004E015
:1010E00005216E4A117000E000BF00BF70476C49D7
:1010F000086070476249096A0143614A116270479A
:1011000067494439086070472DE9F0410021002209
:10111000002500230026002400278C46DFF860818C
:10112000D8F8048008F00C0121B1042907D008295F
:1011300059D109E0DFF86C81C0F8008058E0DFF891
:101140006481C0F8008053E0DFF83481D8F804806F
:1011500008F47012DFF82881D8F8048008F480358C
:10116000920C0D2A01D0921C00E0062235B9DFF85E
:10117000388102FB08F8C0F8008033E0DFF8008116
:10118000D8F82C8008F48036DFF8F480D8F82C806A
:1011900008F00F0808F1010446B9DFF80881B8FB30
:1011A000F4F808FB02F8C0F800801BE0DFF8D080FC
:1011B000D8F82C80C8F3031808F10107DFF8C080C5
:1011C000D8F82C80C8F3032808F1020CDFF8D4808B
:1011D000B8FBF7F808FB0CF8B8FBF4F808FB02F8CA
:1011E000C0F8008004E0DFF8BC80C0F8008000BFD9
:1011F00000BFDFF88C80D8F8048008F0F0010909FE
:10120000DFF8A88018F80130D0F8008028FA03F839
:10121000C0F80480DFF86880D8F8048008F4E06142
:10122000090ADFF8888018F80130D0F8048028FA1D
:1012300003F8C0F80880DFF84880D8F8048008F484
:101240006051C90ADFF8648018F80130D0F80480D2
:1012500028FA03F8C0F80C80DFF82480D8F804805E
:1012600008F44041890BDFF8488018F80130D0F8C5
:101270000C80B8FBF3F8C0F81080BDE8F0810000E6
:10128000001002400000FFF0FFFFF6FE00004242A7
:10129000F0FFFEFFD8004242C40542422010024047
:1012A0008004424200127A0000093D000000002044
:1012B0001000002029B1354A52690243334B5A616C
:1012C00004E0324A52698243304B5A61704729B177
:1012D0002E4A926902432D4B9A6104E02B4A92698F
:1012E00082432A4B9A61704729B1284AD269024346
:1012F000264BDA6104E0254AD2698243234BDA6146
:10130000704729B1214A926A0243204B9A6204E055
:101310001E4A926A82431D4B9A62704729B11B4A4A
:10132000D2680243194BDA6004E0184AD26882435B
:10133000164BDA60704729B1144A12690243134B05
:101340001A6104E0114A12698243104B1A61704716
:101350000F49086070470F49C86470470B49C8714E
:1013600070470A48406A40F08070084948627047F8
:1013700001460020054A92680A4201D0012000E09F
:101380000020704701498872704700000010024039
:10139000400442420000424210B50446FB488442E9
:1013A00009D101218803FFF7B9FF00214FF48040E4
:1013B000FFF7B4FF32E0F648844209D10121480426
:1013C000FFF7B9FF00214FF40030FFF7B4FF25E02D
:1013D000F048844209D101218804FFF7ACFF0021C5
:1013E0004FF48020FFF7A7FF18E0EB48844209D1B3
:1013F0000121C804FFF79FFF00214FF40020FFF7F1
:101400009AFF0BE0E548844208D101210805FFF767
:1014100092FF00214FF48010FFF78DFF10BD2DE9E2
:10142000F04786B005460E460024A24600BFA146FE
:101430000027B08900B100BF2F462C8A4CF6FF7000
:101440000440F08804432C82AC894EF6F31004402B
:10145000B08831890843718908430443AC81AC8A60
:101460004FF6FF400440B0890443AC8201A8FFF767
:101470004BFEC648874202D1DDF810A001E0DDF83E
:101480000CA0A88910F4004F08D00AEBCA0000EBAA
:101490000A1031684900B0FBF1F807E00AEBCA0016
:1014A00000EB0A1031688900B0FBF1F86420B8FB4A
:1014B000F0F004012009642101FB1089A88910F4CF
:1014C000004F08D0322000EBC900B0FBF1F000F073
:1014D0000700044308E0322000EB09106421B0FB50
:1014E000F1F000F00F0004432C8106B0BDE8F08756
:1014F0004FF41651016000218180C18001810C21CF
:10150000418100218181704710B502460020108A78
:101510004FF2FF0318400B884C8823438C882343E9
:10152000CC8823431843108210BD002101804180E4
:101530008180C180704721B1828942F4005282814A
:1015400004E082894DF6FF731A4082817047F0B53E
:1015500003460024002600250020A1F510676A3FFD
:1015600000D100BF1846C1F3421401F01F06012745
:1015700007FA06F5012C01D10C3004E0022C01D150
:10158000103000E014301AB107682F43076002E002
:101590000768AF430760F0BD1AB1838A0B438382AB
:1015A00002E0838A8B4383827047028A4FF6F0738E
:1015B0001A400282028A0A430282704782894FF2ED
:1015C000FF731A40828182890A438281704721B168
:1015D000828942F00202828104E082894FF6FD7323
:1015E0001A4082817047028A4FF6DF731A400282E6
:1015F000028A0A430282704721B1028A42F4804281
:10160000028204E0028A4BF6FF731A40028270479E
:10161000C1F308028280704701468888C0F3080041
:101620007047818941F0010181817047028BD2B2FC
:101630000283028B42EA012202837047028B02F48A
:101640007F420283028B0A430283704721B1828A60
:1016500042F02002828204E0828A4FF6DF731A4051
:101660008282704721B1828A42F01002828204E0B5
:10167000828A4FF6EF731A408282704721B1828AC4
:1016800042F00802828204E0828A4FF6F7731A4021
:101690008282704721B1828942F40042828103E054
:1016A0008289C2F30E028281704721B1828A42F49C
:1016B0000062828204E0828A4FF2FF731A408282C3
:1016C0007047828A4FF6FB731A408282828A0A43ED
:1016D0008282704721B1828A42F00202828204E053
:1016E000828A4FF6FD731A408282704702460020BC
:1016F000B1F5007F00D100BF13880B4201D001205B
:1017000000E00020704701F40072B2F5007F00D1C4
:1017100000BFCA430280704770B502460024002310
:1017200000250020A1F510666A3E00D100BFC1F37C
:10173000421501F01F03012606FA03F3012D02D121
:101740009689334006E0022D02D1168A334001E02B
:10175000968A33400C12012606FA04F416883440A7
:1017600013B10CB1012000E0002070BD10B50022C3
:101770000023A1F510646A3C00D100BF0A120124C5
:101780009440A3B2DC43048010BD00000038014047
:101790000044004000480040004C00400050004021
:1017A00031490143314A1160704770B5002100236F
:1017B0000F22C4780CB32D4C246804F4E064C4F503
:1017C000E064210AC1F10403CA40447804FA03F139
:1017D0008478144021430901254C0678A1550478EA
:1017E00004F01F050124AC4005786D114FF0E02690
:1017F00006EB8505C5F8004109E0047804F01F05F3
:101800000124AC401B4D0678761145F8264070BD8A
:10181000194A0A400243154B1B1F1A60704739B121
:10182000124A121D12680243104B1B1D1A6006E07B
:101830000E4A121D126882430C4B1B1D1A60704722
:10184000042808D14FF0E021096941F004014FF06C
:10185000E022116107E04FF0E021096921F0040165
:101860004FF0E022116170470000FA050CED00E036
:1018700000E400E080E100E080FFFF1F10B50446B7
:10188000FE48844208D10121C014FFF747FD002122
:10189000E014FFF743FDC4E0B4F1804F08D101210B
:1018A0000846FFF748FD00210120FFF744FDB8E09E
:1018B000F348844208D101210220FFF73CFD0021BA
:1018C0000220FFF738FDACE0EE48844208D1012148
:1018D0000420FFF730FD00210420FFF72CFDA0E0DD
:1018E000E948844208D101210820FFF724FD0021A6
:1018F0000820FFF720FD94E0E448844208D101214C
:101900001020FFF718FD00211020FFF714FD88E0DC
:10191000DF48844208D101212020FFF70CFD00217F
:101920002020FFF708FD7CE0DA48844208D101213D
:101930004014FFF7F3FC00216014FFF7EFFC70E0A8
:10194000D548844209D10121C804FFF7E7FC0021F2
:101950004FF40020FFF7E2FC63E0D048844209D155
:1019600001210805FFF7DAFC00214FF48010FFF792
:10197000D5FC56E0CA48844209D101214805FFF749
:10198000CDFC00214FF40010FFF7C8FC49E0C5482A
:10199000844208D101214020FFF7CDFC00214020E6
:1019A000FFF7C9FC3DE0C048844208D101218020F6
:1019B000FFF7C1FC00218020FFF7BDFC31E0BB48F0
:1019C000844208D101218015FFF7B5FC0021A01544
:1019D000FFF7B1FC25E0B648844209D10121080493
:1019E000FFF79CFC00214FF48030FFF797FC18E0D4
:1019F000B048844209D101214804FFF78FFC00213F
:101A00004FF40030FFF78AFC0BE0AB48844208D16A
:101A100001218804FFF782FC00214FF48020FFF7AA
:101A20007DFC10BD00220288944B98420ED0994B49
:101A300098420BD0B0F1804F08D0914B984205D01E
:101A4000904B984202D0904B984204D14FF68F733E
:101A50001A404B881A438D4B984207D08C4B9842C2
:101A600004D04FF6FF431A40CB881A4302808B887C
:101A700083850B880385814B98420BD0854B984218
:101A800008D08B4B984205D08A4B984202D08A4BA3
:101A9000984201D10B7A038601238382704770B587
:101AA000002400220023058C4FF6FE763540058485
:101AB000028C8388048B4FF68F752C40B51E2C400A
:101AC0000D882C43751E2A400D892A434D882A43D0
:101AD0006A4DA8420BD06F4DA84208D0744DA84261
:101AE00005D0744DA84202D0734DA84213D14FF6D1
:101AF000F7752A404D892A434FF6FB752A408D8899
:101B00002A434FF6FF652B404FF6FF552B408D893A
:101B10002B43CD892B4383800483CD888586028423
:101B200070BD70B5002400220023058C4FF6EF76BF
:101B300035400584028C8388048B48F6FF752C4061
:101B40004FF6FF452C400D884FF6FF7606EA052537
:101B50002C434FF6DF752A400D8906EA05152A4306
:101B60004D8806EA05152A43444DA84202D0494D46
:101B7000A8421DD14FF67F752A404D894FF6FF765A
:101B800006EA05152A434FF6BF752A408D8806EAF6
:101B900005152A434FF6FF352B404FF2FF752B40BA
:101BA0008D8906EA85052B43CD8906EA85052B43F9
:101BB00083800483CD880587028470BD70B50024BE
:101BC00000220023058C4FF6FF6635400584028C09
:101BD0008388848B4FF68F752C404FF6FC752C4014
:101BE0000D882C434FF6FF552A400D894FF6FF769E
:101BF00006EA05252A434D8806EA05252A431F4D96
:101C0000A84202D0234DA8421DD14FF2FF752A40B1
:101C10004D894FF6FF7606EA05252A434FF6FF3534
:101C20002A408D8806EA05252A434EF6FF752B408B
:101C30004DF6FF752B408D8906EA05152B43CD899E
:101C400006EA05152B4383808483CD88858702842B
:101C500070BD70B5002200230024058C4EF6FF767F
:101C600035400584038C8488828B48F6FF752A40B2
:101C70004FF6FF452A400D8820E00000002C01406F
:101C80000004004000080040000C0040001000402C
:101C90000014004000340140004C0140005001405D
:101CA0000054014000180040001C0040002000408B
:101CB0000040014000440140004801404FF6FF76DB
:101CC00006EA05252A434DF6FF752B400D8906EAE5
:101CD00005352B434D8806EA05352B43FA4DA842BE
:101CE00002D0FA4DA84208D14BF6FF752C408D89E1
:101CF0004FF6FF7606EA85152C4384808283CD88D3
:101D0000A0F84050038470BD828B4FF2FF331A401D
:101D10008283828B4FF6FF7303EA01231A43828387
:101D20007047F0B50C461546002200210026078CAE
:101D30004EF6FF7C07EA0C070784828B018C4FF676
:101D4000FF7707EA043640F6FF473A404FF6FF7741
:101D500007EA05273A434FF6FF7707EA03373A4386
:101D6000D94FB8420ED0D94FB8420BD0B0F1804F06
:101D700008D0D74FB84205D0D64FB84202D0D64F80
:101D8000B84206D14DF6FF77394046F480573943C3
:101D900005E047F6FF57394044F4805739438283C2
:101DA0000184F0BD828B4FF6F3731A408283828BDD
:101DB0000A4382837047F0B50C4615460022002185
:101DC0000026078C4FF6FF6C07EA0C070784828B0E
:101DD000018C4FF6FF7707EA04264FF60C773A405E
:101DE0004FF6FF7707EA03172F433A43B64FB8423F
:101DF0000ED0B64FB8420BD0B0F1804F08D0B44FE0
:101E0000B84205D0B34FB84202D0B34FB84206D162
:101E10004FF6FF57394046F48077394305E04FF2DB
:101E2000FF57394044F48077394382830184F0BD01
:101E3000028B4FF2FF331A400283028B4FF6FF737F
:101E400003EA01231A4302837047F0B50C46154696
:101E5000002200210026078C4FF6EF7C07EA0C07D2
:101E60000784028B018C4FF6FF7707EA041640F6D1
:101E7000FF473A404FF6FF7707EA03373A434FF6FA
:101E8000FF7707EA05273A438F4FB8420ED08F4FAE
:101E9000B8420BD0B0F1804F08D08D4FB84205D07A
:101EA0008C4FB84202D08C4FB84206D14FF6DF7744
:101EB000394046F01007394305E04FF65F77394067
:101EC00044F01007394302830184F0BD028B4FF6C2
:101ED000F3731A400283028B0A4302837047F0B502
:101EE0000C46154600220021068C4FF6FE773E4038
:101EF0000684028B018C4FF60C7632407E1C06EA7B
:101F000003162E433243704EB0420ED06F4EB04295
:101F10000BD0B0F1804F08D06D4EB04205D06D4E61
:101F2000B04202D06C4EB04206D14FF6FD76314041
:101F300044F00106314305E04FF6F576314044F0B8
:101F40000106314302830184F0BD70B505460C469D
:101F50005D4885420ED05D4885420BD0B5F1804F7B
:101F600008D05B48854205D05A48854202D05A487D
:101F7000854200D100E000BF208850B92389A288A3
:101F800061882846FFF7ABFFE1882846FFF79EFFF0
:101F900025E0208804280AD12389A2886188284660
:101FA000FFF753FFE1882846FFF742FF17E020883C
:101FB00008280AD12389A28861882846FFF7FBFEFA
:101FC000E1882846FFF7EEFE09E02389A2886188B0
:101FD0002846FFF7A6FEE1882846FFF795FE70BD6C
:101FE0002DE9F04105460C4600260127608808B916
:101FF000022600E00026A088012801D1022700E087
:1020000001272088A0B92389A28861882846FFF784
:1020100066FFE1882846FFF759FF23893A46314693
:102020002846FFF712FFE1882846FFF701FF13E07B
:102030002389A28861882846FFF707FFE1882846A0
:10204000FFF7F6FE23893A4631462846FFF747FF59
:10205000E1882846FFF73AFFBDE8F0810A884B88FF
:102060001A438B881A43CB881A430B891A434B892E
:102070001A438B891A43A0F8442070474FF6FF712A
:10208000818000210180C180418001727047002160
:10209000018041808180C180018141818181C18134
:1020A0007047002101804180012181800021C18091
:1020B000018170470021018041808180C1800181C0
:1020C0004181818170470000002C014000340140B3
:1020D0000004004000080040000C004021B10288CC
:1020E00042F00102028004E002884FF6FE731A40BB
:1020F0000280704731B1B0F8442042F40042A0F8A9
:10210000442005E0B0F84420C2F30E02A0F84420B9
:1021100070471AB183890B43838102E083898B4323
:10212000838170478182704741EA0203A0F84830FA
:1021300070471AB183890B43838102E083898B4303
:102140008381704701894FF6F87211400181704711
:102150000A46002101894FF68F731940114301810E
:10216000704730B504460D4629462046FFF7F0FF7C
:10217000208940F00700208130BD2DE9F041044660
:102180000D4616461F46602D06D13B4601223146BC
:102190002046FFF75AFE05E03B4601223146204625
:1021A000FFF79DFE29462046FFF7D2FF208940F029
:1021B00007002081BDE8F08130B50C46002101897F
:1021C000C9B24FF6FF7505EA032515432543294398
:1021D000018130BD2DE9F04105460E46174698466F
:1021E000002443463A4631462846FFF7E5FF2C894E
:1021F0004FF6F870044044F007044FF68F70044027
:1022000044F070042C81BDE8F081F0B504460D4621
:1022100016461F463B46324629462046FFF7CCFF6E
:10222000208940F480402081F0BD01858282704782
:102230000A46002101884FF68F731940114301802F
:102240007047F0B50C4615461E46002100220023BB
:102250000189028B038C4FF6F877394021434FF602
:10226000FC473A4040F201173A434FF6DD773B40D6
:102270004FF6FF7707EA06172F433B43018102839E
:102280000384F0BD0A460021018B4FF68F7319407D
:102290001143018370470A460021018B48F6FF7302
:1022A00019404FF6FF7303EA022319430183704775
:1022B0000A460021818B4FF68F73194011438183A9
:1022C00070470A460021818B48F6FF7319404FF68C
:1022D000FF7303EA022319438183704721B1028807
:1022E00042F08002028004E002884FF67F731A40B9
:1022F0000280704721B1828842F00402828004E0AB
:1023000082884FF6FB731A408280704721B1828821
:1023100042F00802828004E082884FF6F7731A4088
:102320008280704721B1828842F00102828004E0FD
:1023300082884FF6FE731A40828070470A46002159
:10234000018B4FF6F77319401143018370470A461A
:102350000021018B4FF2FF7319404FF6FF7303EA20
:1023600002231943018370470A460021818B4FF6EF
:10237000F77319401143818370470A460021818B0E
:102380004FF2FF7319404FF6FF7303EA022319431C
:10239000818370470A460021018B4FF6FB73194079
:1023A0001143018370470A460021018B4FF6FF332A
:1023B00019404FF6FF7303EA022319430183704764
:1023C0000A460021818B4FF6FB731940114381832C
:1023D00070470A460021818B4FF6FF3319404FF6B4
:1023E000FF7303EA02231943818370470A460021E1
:1023F000018B4FF67F7319401143018370470A46E2
:102400000021018BC1F30E014FF6FF7303EA022393
:102410001943018370470A460021818B4FF67F7371
:1024200019401143818370470A460021818BC1F313
:102430000E014FF6FF7303EA0223194381837047AD
:102440000A460021018C4FF6FD73194011430184A7
:1024500070470A460021018C4FF6F773194011436B
:10246000018470470A460021018C4FF6DF73194042
:102470004FF6FF7303EA02131943018470470A46BB
:102480000021018C4FF67F7319404FF6FF7303EA6A
:1024900002131943018470470A460021018C4FF64C
:1024A000FF5319404FF6FF7303EA022319430184D7
:1024B00070470A460021018C4FF2FF7319404FF616
:1024C000FF7303EA02231943018470470A4600217F
:1024D000018C4DF6FF7319404FF6FF7303EA023388
:1024E00019430184704730B5002301248C40A3B206
:1024F000048C9C430484048C02FA01F5ADB22C4395
:10250000048430BD30B5002304248C40A3B2048C75
:102510009C430484048C02FA01F5ADB22C4304847C
:1025200030BD70B503460020002418461830012540
:102530008D40ACB21D8CA5431D8409B1082909D179
:1025400000EB6100056825F070050560056815431E
:1025500005600EE00D1FC5F34E052844056825F4FF
:10256000E045056005684FF6FF7606EA022635432A
:10257000056070BD21B1028842F00202028004E0D1
:1025800002884FF6FD731A400280704721B102881D
:1025900042F00402028004E002884FF6FB731A4006
:1025A0000280704721B1828842F08002828004E07C
:1025B00082884FF67F731A408280704702884FF6F8
:1025C000F7731A40028002880A43028070478288AB
:1025D0004FF68F731A40828082880A438280704748
:1025E00002894FF6F8731A40028102890A43028178
:1025F000704702894FF67F731A40028102890A43AD
:102600000281704781847047818570478186704759
:102610000187704781877047A0F840107047028893
:102620004FF6FF431A40028002880A430280704737
:102630000146888E70470146088F70470146888F93
:1026400070470146B1F8400070470146888C7047DA
:102650000146088D704702460020138A0B4201D0C4
:10266000012000E000207047CA430282704730B565
:102670000246002000230024158A05EA01039589FB
:1026800005EA010413B10CB1012000E0002030BDC7
:10269000CA4302827047000008480047FEE7FEE791
:1026A000FEE7FEE7FEE7FEE7FEE7FEE7FEE7FEE702
:1026B00003480449044A054B7047000051010008D3
:1026C000000F002000150020001100200011002044
:1026D0000020411EFE4A11606FF07042FD49C1F8B2
:1026E00084204FF0FF314FF0E022C2F880126FF0EB
:1026F0007042F9490A6000BF03E00022F7490A541A
:10270000401C3C28F9D3704710B5FEF7C5FB4FF4C9
:102710008030FEF7E8FBFEF725FCF149087008461B
:10272000007801282AD10020FEF78FFC0020FEF758
:102730009EFC4FF48060FEF791FC4FF40040FEF7E2
:10274000B0FC1020FDF77AFD0220FDF763FD4FF489
:10275000E0114FF48030FEF72EFC0120FEF737FC2D
:1027600000BF3920FEF7E2FB0028FAD00220FEF776
:102770005EFC00BFFEF764FC0828FBD101217C2031
:10278000FEF7A5FD01218803FEF7A1FD01214FF40D
:10279000F010FEF7A9FD01210846FEF798FD012182
:1027A0004806FEF7A1FD01210846FEF79DFD012127
:1027B0000420FEF799FD10BD08B5FFF789FF002141
:1027C0004FF00060FFF724F84FF4A060FEF7E8FF39
:1027D00025208DF8000002208DF8010000208DF8E2
:1027E000020001208DF803006846FEF7DEFF262078
:1027F0008DF8000002208DF8010001208DF8020004
:102800008DF803006846FEF7D0FF27208DF8000002
:1028100002208DF801008DF8020001208DF80300E0
:102820006846FEF7C2FF34208DF8000002208DF8C4
:1028300001008DF8020001208DF803006846FEF7C4
:10284000B4FF1E208DF8000002208DF80100032047
:102850008DF8020001208DF803006846FEF7A5FF01
:102860004FF4E060FEF79CFF1C208DF80000002074
:102870008DF8020001208DF803006846FEF795FFF1
:1028800008BD0EB54FF08040FEF7F8FF42F2107021
:10289000ADF8040040F2CF20ADF800000020ADF804
:1028A000020069464FF08040FFF7BCF80122114654
:1028B0009007FFF72EFC01218807FFF70FFC0EBDE4
:1028C0001FB5044600218748FEF735FE009400201E
:1028D000ADF80400ADF80600ADF80800ADF80C0046
:1028E0000C20ADF80A0069467E48FEF798FD0121EC
:1028F0007C48FEF720FE012240F225517948FEF780
:1029000026FE012240F226617648FEF720FE1FBD1A
:1029100070B57549B1F1807F00D31DE021F07F4093
:10292000401E4FF0E022506150170F22002807DAB6
:1029300013071D0E6D4B00F00F04241F1D5503E0FF
:1029400013071C0E654B1C5400BF00204FF0E02203
:1029500090610720106100BF0420FEF771FF70BD79
:1029600008B501214804FEF7BFFC0420ADF80000C3
:1029700018208DF8030003208DF8020069465C489A
:10298000FDF786FF0820ADF8000004208DF8030055
:1029900003208DF8020069465548FDF779FF4FF492
:1029A0000060ADF8000004208DF8030003208DF8CE
:1029B000020069464F48FDF76BFF4FF48060ADF8A9
:1029C000000018208DF8030003208DF802006946EE
:1029D0004848FDF75DFF4FF48060ADF8000004202B
:1029E0008DF8030003208DF8020069464048FDF78A
:1029F0004FFF4FF40070ADF8000018208DF8030071
:102A000003208DF8020069463948FDF741FF08BDF3
:102A100008B53748FDF7DCFE3748FDF7D9FE3548E5
:102A2000FDF7D6FE3548FDF7D3FE4FF6FF70ADF843
:102A3000000004208DF8030003208DF80200694691
:102A40002B48FDF725FF4FF6FF70ADF8000004207E
:102A50008DF8030003208DF8020069462648FDF733
:102A600017FF4FF6FF70ADF8000004208DF803004B
:102A700003208DF8020069461E48FDF709FF4FF656
:102A8000FF70ADF8000004208DF8030003208DF8DE
:102A9000020069461948FDF7FBFE4FF6FF70ADF8DE
:102AA000000004208DF8030003208DF80200694621
:102AB0001348FDF7EDFE4FF48070ADF800001020D4
:102AC0008DF8030003208DF802006946084819E0DC
:102AD00080E100E000E100E084E200E000E400E0EA
:102AE00018000020004C00404019010018ED00E0E3
:102AF0000008014000100140000C0140001401409A
:102B000000180140FDF7C4FE41F21800ADF80000C6
:102B100010208DF8030003208DF80200694641481B
:102B2000FDF7B6FE4FF47070ADF8000010208DF880
:102B3000030003208DF8020069463B48FDF7A8FE1C
:102B40004FF47040ADF8000010208DF80300032012
:102B50008DF8020069463548FDF79AFE08BD01462A
:102B60000020334A12688A4201DD012200E000227F
:102B70001046704701460A460AB9012070472C48A2
:102B800000680844FAE770B5044600262068294921
:102B90000840B0F1005F04D12068FDF730FB6568A4
:102BA000A847FDF735FB304670BD00B587B004A8D7
:102BB000FFF764FA4FF4FA70ADF814000720ADF88F
:102BC00010000020ADF81600ADF8120004A91A4854
:102BD000FEF728FF0020ADF800000120ADF802004C
:102BE000FA20ADF806000020ADF8080001221146D9
:102BF0001148FFF78EFA01210F48FFF76FFA07B06F
:102C000000BD10B5FDF702FBFFF77EFDFFF700FFEB
:102C1000FFF7CBFFFFF7A4FEFFF77AFEFFF7CCFD2F
:102C200010BD0000000C01400010014000140140E4
:102C3000140000200000FE2F0008004010B50246DE
:102C4000002003E032F8024B231898B20B00A1F1E8
:102C50000104A1B2F6D110BD70B50246002414469D
:102C60000023002011E014F8015B684000230AE013
:102C700010F0010F04D04AF2010585EA600000E07F
:102C800040105D1CABB2082BF2DB0D00A1F101017D
:102C9000E9D170BD10B500BF4FF48071FD48FDF75C
:102CA000A2FE4FF48051FC48FDF79DFE00BFFB489B
:102CB0000088401CF94908800846008800282ADB63
:102CC00008460088B0F5FA6F25DA00BF4FF480712E
:102CD000F348FDF78AFE00BF00BF0821EE48FDF76C
:102CE00084FE00BF00BF4021ED48FDF77EFE00BF1F
:102CF00000BF4FF40071EA48FDF777FE00BF00BF48
:102D00008021E748FDF771FE00BF00BF1021E248B7
:102D1000FDF76BFEE8E0E1480088B0F5FA6F10DBE4
:102D2000DE480088B0F57A6F0BDA00BF1021DA4870
:102D3000FDF759FE00BF00BF8021D948FDF753FEC3
:102D4000D2E0D6480088B0F57A6F18DBD348008807
:102D500041F27071884212DA00BF1021CE48FDF7AF
:102D600044FE00BF00BF8021CD48FDF73CFE00BF00
:102D700000BF4FF40071CA48FDF735FEB4E0C74804
:102D8000008841F2707188421DDBC4480088B0F5AC
:102D9000FA5F18DA00BF1021BF48FDF726FE00BF1A
:102DA00000BF8021BE48FDF720FE00BF00BF4FF4EA
:102DB0000071BB48FDF717FE00BF00BF4021B848B7
:102DC000FDF711FE90E0B5480088B0F5FA5F24DB0E
:102DD000B248008842F2107188421EDA00BF10210A
:102DE000AD48FDF702FE00BF00BF8021AC48FDF7F3
:102DF000FCFD00BF00BF4FF40071A948FDF7F5FDD1
:102E000000BF00BF4021A648FDF7EDFD00BF00BF99
:102E10000821A148FDF7E7FD66E0A048008842F2DE
:102E2000107188422BDB9D48008842F6E0618842A1
:102E300025DA00BF10219848FDF7D7FD00BF00BF7D
:102E400080219748FDF7D1FD00BF00BF4FF400710E
:102E50009348FDF7CAFD00BF00BF40219048FDF731
:102E6000C4FD00BF00BF08218B48FDF7BCFD00BFBB
:102E700000BF4FF480718A48FDF7B5FD34E0874804
:102E8000008842F6E06188422BDB8448008843F2E8
:102E9000B061884225DA00BF10217F48FDF7A5FD0B
:102EA00000BF00BF80217E48FDF79FFD00BF00BF2F
:102EB0004FF400717A48FDF798FD00BF00BF402134
:102EC0007748FDF792FD00BF00BF08217248FDF76B
:102ED0008CFD00BF00BF4FF480717148FDF783FD8A
:102EE00002E000206D49088010BD2DE9F047ADF5E6
:102EF000806D8046894615461C46DDF820A42DB914
:102F00004FF0FF300DF5806DBDE8F08704F108004B
:102F1000B0F5806F02D94FF0FF30F3E7BAF1000F40
:102F200009D1604800788DF805005E480078401CA3
:102F30005C49087001E08DF805A0FA208DF80000CA
:102F400003208DF80100ADF802808DF80490ADF8F3
:102F5000064004F1080086B22246294602A800F085
:102F60009BFE31466846FFF777FE074602A80755E5
:102F70003A0A611C4254B01C86B2324669460320AC
:102F800000F099FC0020BDE7FEB504460D4616464C
:102F90001F46ADF80440ADF80650ADF808600623B2
:102FA00001AA0B2100200097FFF79FFF0120FEBD23
:102FB0002DE9F05F06464FF001093079AB2868D162
:102FC00006F1080494F80080A77996F805A0B8F1F6
:102FD000000F6FD1062F6ED2DFE807F087060931A8
:102FE00084034FF0000998E04FF0000995E0FDF7E9
:102FF00030F93520FDF7C8FB0025FDF707F96F25EF
:1030000011E029490A1402FB0510FDF767F9274969
:10301000087008460078042802D10120087000E0FA
:1030200003E0681E05B2002DEBDA00BFFDF7F0F8F3
:10303000002D01DA4FF00009FDF717F96DE0FDF7FB
:1030400008F90025AB466588A08840EA0545164882
:10305000854202D31648854204D9FDF706F94FF0A0
:1030600000095AE0FDF7D2F84FF0000B29E004F117
:103070000A0000EB4B0001882846FDF732FA0B49A5
:10308000087008460078042816D1AD1C012008708D
:1030900013E04AE000080140000C01402400002039
:1030A00000100140260000200080000827000020BA
:1030B000FFFF030838E02FE006E00BF101001FFAE4
:1030C00080FB20895845D2DC00BFFDF7A1F820899C
:1030D000584501DC4FF000090F20FDF7ECF8FDF733
:1030E000C4F81AE04FF0000917E04FF47A70FFF7C8
:1030F00041FD054600BF2846FFF731FD0028FAD004
:1031000000BFAD48006800F4E060AC490843001D12
:10311000A949086000BF00E000BF00BF53464A460F
:1031200039464046FFF730FF00BF0120BDE8F09F61
:10313000F8B505460E46002400270020009000BF89
:1031400074E0295D9E48B0F80024B0F80004401CEB
:1031500083B29B48A0F80034815490F8020420BB4D
:1031600097480078FA2804D000219548A0F8001468
:103170005AE09348B0F80004022816DB90484078E3
:10318000032804D000218E48A0F800144CE001214F
:103190008B4880F802140021A0F8041441F2883012
:1031A000FFF7E8FC874908603EE08548B0F8000476
:1031B000B0F5806F06DB00218148A0F8001480F88C
:1031C000021431E07E48B0F80004082804D17C489D
:1031D000C188A0F8041427E07948B0F80014B0F8CA
:1031E00004040A3081421ED37548B0F80004811EE1
:1031F0007348FFF731FD07467148B0F80004704985
:10320000084430F8020C0090BDF80000874204D159
:103210000846B0F80014FFF7CBFE00216848A0F87C
:10322000001480F8021400BF601C84B2B44288DB32
:10323000F8BD10B5C0B04FF48071684600F09BFD3A
:103240004FF480726946032000F0D8FB04461CB19D
:10325000A1B26846FFF76CFF594890F8020460B1CC
:1032600058480068FFF77BFC38B100215448A0F8AB
:103270000014A0F8041480F8021440B010BD00B58A
:103280008DB04FF4E13009900020ADF82800ADF882
:103290002A00ADF82C00ADF82E000C20ADF830005F
:1032A000494808904FF480700790484806904FF4C2
:1032B000006005900146454800F03BFD4FF48071E9
:1032C000414800F036FDDDE90501CDE90301DDE906
:1032D0000701CDE901010C980090032009A90EC94E
:1032E00000F02EFC08B90DB000BD00BFFBE700B533
:1032F0008DB04FF4E13009900020ADF82800ADF812
:103300002A00ADF82C00ADF82E000C20ADF83000EE
:103310002F480890802007902E4806904020059066
:10332000DDE90501CDE90301DDE90701CDE9010191
:103330000C980090002009A90EC900F001FC08B902
:103340000DB000BD00BFFBE7FFF75BFCFFF797FF89
:10335000FFF7CDFFFCF77DFF1F48006800884FF6A0
:10336000F07100EA0104FCF753FFA4F5AA40A0386D
:1033700011D0A4F52A4050380DD0184800784F28B5
:1033800009D11648401C00784B2804D1FCF73EFFB9
:103390001348FFF7F8FB00200F4909680880FCF785
:1033A00037FF00231A4605211846FFF7EDFD01E01F
:1033B000FFF73FFFFCE700000CED00E00000FA051E
:1033C0005009002020000020500000205001002063
:1033D000960D0020560D00201C000020FCFF030865
:1033E0000080000810B502460A2A01DB002010BD4B
:1033F00002EB4200F54B13F8200008B90020F6E775
:1034000002EB4200F14B03EB8000C08808B90020BA
:10341000EDE702EB4200ED4B03EB8000806802EB2E
:103420004203EA4C04EB83039B88C15402EB420045
:10343000234603EB80008088401C02EB420304EB30
:103440008303988002EB4200234603EB80008088D0
:1034500002EB420304EB8303DB88984205DB002088
:1034600002EB420304EB830398800120BFE7F0B531
:1034700003460C460A2B01DB0020F0BD03EB4300A2
:10348000D24D15F8200008B90020F6E703EB430001
:10349000CE4D05EB8000C08808B90020EDE704B1EF
:1034A0000AB90020E9E700212FE0605C03EB430547
:1034B000C64E06EB8505AD6803EB4306C34F07EB2D
:1034C0008606B688A85503EB43003D4605EB800011
:1034D0008088401C03EB43053E4606EB8505A8802B
:1034E00003EB4300354605EB8000808803EB430582
:1034F00006EB8505ED88A84205DB002003EB4305BC
:1035000006EB8505A880481C81B29142CDDB0120E5
:10351000B3E710B502460A2A01DB002010BD02EB1A
:103520004200AA4B13F8200008B90020F6E702EB8E
:103530004200A64B03EB8000C08808B90020EDE7ED
:1035400002EB4200A14B03EB8000408802EB4203F8
:103550009E4C04EB83039B88984201D10020DDE759
:1035600002EB4200994B03EB8000806802EB4203C0
:10357000964C04EB83035B88C05C087002EB42004E
:10358000234603EB80004088401C02EB420304EB1F
:103590008303588002EB4200234603EB80004088FF
:1035A00002EB420304EB8303DB88984205DB002037
:1035B00002EB420304EB830358800120AEE7F0B531
:1035C00003460D460A2B01DB0020F0BD03EB430050
:1035D0007E4E16F8200008B90020F6E703EB430002
:1035E0007A4E06EB8000C08808B90020EDE70DB9DF
:1035F0000020EAE73AB103EB4300744E06EB80008B
:10360000C088904206DA03EB4300704E06EB800060
:10361000C48800E0144600213EE003EB43006B4EFB
:1036200006EB8000408803EB4306684F07EB8606F5
:10363000B688B04201D10846C7E703EB4300634EAA
:1036400006EB8000806803EB4306604F07EB8606BD
:103650007688805D685403EB43003E4606EB8000AD
:103660004088401C03EB430607EB8606708003EBA3
:1036700043003E4606EB8000408803EB430607EB21
:103680008606F688B04205DB002003EB430607EB15
:1036900086067080481C81B2A142BEDB204694E7BA
:1036A00010B504460A2C01DB002010BD04EB4400D9
:1036B000464911F8200008B90020F6E704EB440061
:1036C000424901EB8000C08808B90120EDE70020E5
:1036D00004EB44013D4A02EB8101488004EB4401C4
:1036E00002EB8101888004EB4402384B03EB820239
:1036F000D18804EB440203EB82029068302200F090
:1037000010FB0120D1E701460A2901DB00207047A8
:1037100001EB41002D4A12F8200008B90020F6E71D
:1037200001EB4100294A02EB8000C08808B9012062
:10373000EDE7002001EB4102244B03EB82025080B5
:1037400001EB410203EB8202908001EB410203EBAB
:103750008202D08001EB410203F8220001EB41021A
:1037600003EB820290600120D1E707B503460A2BE4
:1037700001DB00200EBD03EB4300144911F82000CB
:10378000012800D1F6E7029808B90020F2E703EB20
:1037900043010E4A02EB810102988860002003EB8E
:1037A000430102EB8101488003EB430102EB8101FD
:1037B000888003EB430102EB81010198C88001205E
:1037C00003EB430102F8210000BFD3E7180E0020ED
:1037D00070B504460E46052C04DA04EB4400FC499F
:1037E000085C30B9002004EB4401F94A11444870E8
:1037F00070BD0CB9002511E0012C01D102250DE0AE
:10380000022C01D1042509E0032C01D1062505E095
:10381000042C01D1082501E00020E9E731462846C3
:10382000FFF777FE30B9002004EB4401E84A114469
:103830004870DDE70120DBE7F8B504460E46052CAD
:1038400004DA04EB4400E249085C08B90020F8BD42
:103850000CB9002511E0012C01D102250DE0022C4C
:1038600001D1042509E0032C01D1062505E0042C33
:1038700001D1082501E00020E9E731462846FFF79D
:10388000B1FD04EB4400D2490844407888B90120D6
:1038900004EB4401CE4A1144487069462046FFF7C4
:1038A00097FF9DF80010CB4A02EBC4025068FDF769
:1038B000AFFE0120CBE7F8B504460E461746052CAF
:1038C00006DA04EB4400C249085C08B107B10EB93E
:1038D0000020F8BD0CB9002511E0012C01D1022512
:1038E0000DE0022C01D1042509E0032C01D10625AD
:1038F00005E0042C01D1082501E00020E9E73A4663
:1039000031462846FFF7B3FD04EB4400B0490844B4
:10391000407888B9012004EB4401AD4A1144487055
:1039200069462046FFF754FF9DF80010A94A02EBB4
:10393000C4025068FDF76CFE0120CAE770B504466A
:103940000D46052C04DA04EB4400A149085C00B9DB
:1039500070BD24B929460120FFF744FD1CE0012C6D
:1039600004D129460320FFF73DFD15E0022C04D1C8
:1039700029460520FFF736FD0EE0032C04D1294629
:103980000720FFF72FFD07E0042C04D1294609206A
:10399000FFF728FD00E0DBE700BFD9E770B504467C
:1039A0000D46052C04DA04EB44008949085C08B98B
:1039B000002070BD24B929460120FFF7AAFDF8E7D1
:1039C000012C04D129460320FFF7A3FDF1E7022CC7
:1039D00004D129460520FFF79CFDEAE7032C04D11A
:1039E00029460720FFF795FDE3E7042C04D129467B
:1039F0000920FFF78EFDDCE70020DAE72DE9F04132
:103A000004460E461746052C05DA04EB44007049BF
:103A1000085C00B116B90020BDE8F0810CB90125A1
:103A200011E0012C01D103250DE0022C01D1052567
:103A300009E0032C01D1072505E0042C01D109255B
:103A400001E00020E8E73A4631462846FFF7B7FD97
:103A5000E2E710B50446052C04DA04EB44005C49A7
:103A6000085C08B9002010BD34B90020FFF718FE2B
:103A70000120FFF715FE25E0012C06D10220FFF7FB
:103A80000FFE0320FFF70CFE1CE0022C06D10420E1
:103A9000FFF706FE0520FFF703FE13E0032C06D117
:103AA0000620FFF7FDFD0720FFF7FAFD0AE0042CD2
:103AB00006D10820FFF7F4FD0920FFF7F1FD01E032
:103AC0000020D0E70120CEE70FB41FB504460798C9
:103AD0000090BDF82000ADF80400BDF82200ADF85C
:103AE0000600BDF82400ADF80800BDF82600ADF8CA
:103AF0000C00BDF82800ADF80A00364901EBC401FE
:103B000048686946FDF78BFC324901EBC4014868FF
:103B10000121FDF710FD2F4901EBC4010122486886
:103B200040F22661FDF713FD2A4901EBC401012291
:103B3000486840F22551FDF70AFD1FBC5DF814FBF3
:103B40000FB4F8B50446052C03DB0020F8BC5DF883
:103B500014FB04EB44001E49085C012800D1F5E782
:103B600014B90025012615E0012C02D102250326F7
:103B700010E0022C02D1042505260BE0032C02D113
:103B80000625072606E0042C02D10825092601E0B7
:103B90000020DBE72846DDE90B12FFF7E6FD3046A3
:103BA000DDE90D12FFF7E1FD0A980090204607A914
:103BB0000EC9FFF789FF002004EB4401044A1144B9
:103BC0004870012004EB4401505400BFBEE70000E0
:103BD000900E00202800002010B50446052C01DBC3
:103BE000002010BD04EB44002949085C08B90020FE
:103BF000F7E7284901EBC40148680021FDF79BFC69
:103C0000244901EBC4010022486840F22661FDF717
:103C10009EFC204901EBC4010022486840F2255176
:103C2000FDF795FC34B90020FFF76DFD0120FFF78B
:103C30006AFD25E0012C06D10220FFF764FD032078
:103C4000FFF761FD1CE0022C06D10420FFF75BFDAD
:103C50000520FFF758FD13E0032C06D10620FFF7DF
:103C600052FD0720FFF74FFD0AE0042C06D1082083
:103C7000FFF749FD0920FFF746FD01E00020B0E70E
:103C8000002004EB4401024A50540120A9E700003F
:103C9000900E002028000020032A40F2308010F00F
:103CA000030C00F0158011F8013BBCF1020F6244D7
:103CB00098BF11F801CB00F8013B38BF11F8013B68
:103CC000A2F1040298BF00F801CB38BF00F8013B15
:103CD00011F0030300F07980083AC0F0088051F831
:103CE000043B083A51F804CBA0E80810F5E7121D90
:103CF0005CBF51F8043B40F8043BAFF30080D207AF
:103D000024BF11F8013B11F801CB48BF11F8012B7A
:103D100024BF00F8013B00F801CB48BF00F8012B9D
:103D2000704702F0FF0343EA032242EA024200F036
:103D300002B84FF000020429C0F0128010F0030C0A
:103D400000F01B80CCF1040CBCF1020F18BF00F88E
:103D5000012BA8BF20F8022BA1EB0C0100F00DB83D
:103D60005FEAC17C24BF00F8012B00F8012B48BF9B
:103D700000F8012B70474FF0000200B5134694463F
:103D80009646203922BFA0E80C50A0E80C50B1F1B3
:103D90002001BFF4F7AF090728BFA0E80C5048BFC7
:103DA0000CC05DF804EB890028BF40F8042B08BF65
:103DB000704748BF20F8022B11F0804F18BF00F861
:103DC000012B704770477047704710B5203AC0F01C
:103DD0000B80B1E81850203AA0E81850B1E818500C
:103DE000A0E81850BFF4F5AF5FEA027C24BFB1E849
:103DF0001850A0E8185044BF18C918C0BDE81040BA
:103E00005FEA827C24BF51F8043B40F8043B08BFC2
:103E10007047D20728BF31F8023B48BF11F8012B89
:103E200028BF20F8023B48BF00F8012B70477546B9
:103E300000F028F8AE4605006946534620F007001A
:103E4000854618B020B5FEF733FCBDE820404FF0A2
:103E500000064FF000074FF000084FF0000B21F074
:103E60000701AC46ACE8C009ACE8C009ACE8C00941
:103E7000ACE8C0098D4670470446AFF30080204689
:103E8000FCF7ADF900487047A00E0020014918204A
:103E9000ABBEFEE72600020070470000BC3E0008F3
:103EA00000000020500000008C0100080C3F0008BA
:103EB00050000020B0140000A8010008000000001D
:103EC00001020304010203040607080902040608AC
:103ED0000000000000000000FCFF002000000000C7
:103EE0000000010000000000003801400100000057
:103EF00000440040020000000048004003000000B1
:0C3F0000004C0040040000000050004095
:020000040800F2
:10800000508B00208182000819AD01081BAD0108CA
:108010001FAD010823AD010827AD010800000000D5
:108020000000000000000000000000002BAD01086F
:108030002DAD0108000000002F810108659E010898
:1080400097820008978200089782000897820008AC
:10805000978200089782000897820008978200089C
:108060009782000897820008978200086FA5010890
:10807000978200089782000897820008978200087C
:10808000978200089782000897820008978200086C
:1080900033AD010897820008978200089782000894
:1080A000978200089782000897820008978200084C
:1080B0009782000897820008EDA9010897820008BE
:1080C000978200089782000897820008978200082C
:1080D000978200088B9E01080F9F0108939F01085B
:1080E000978200089782000897820008978200080C
:1080F00097820008978200088BAA010897820008DF
:1081000097820008978200089782000897820008EB
:1081100017A001089BA00108978200089782000819
:1081200097820008978200089782000897820008CB
:1081300000F002F800F091F80AA090E8000C8244E8
:108140008344AAF10107DA4501D100F086F8AFF2C5
:10815000090EBAE80F0013F0010F18BFFB1A43F025
:108160000103184708750100387501000A444FF0F3
:10817000000C10F8013B13F0070408BF10F8014B86
:108180001D1108BF10F8015B641E05D010F8016BCB
:10819000641E01F8016BF9D113F0080F1EBF10F82F
:1081A000014BAD1C0C1B09D16D1E58BF01F801CB52
:1081B000FAD505E014F8016B01F8016B6D1EF9D5D5
:1081C0009142D6D370470000103A24BF78C878C1D6
:1081D000FAD8520724BF30C830C144BF04680C60CD
:1081E000704700000023002400250026103A28BF15
:1081F00078C1FBD8520728BF30C148BF0B60704719
:10820000692914F0F586642914F0F286752914F0B2
:10821000EF866F2914F08687782914F0AF870368FA
:10822000DB0928BF41F08001632915F07A83E32937
:1082300015F08D83002070471FB59DE8030014F0F2
:1082400081FD15F045FC04000020002115F0B2FC72
:10825000401C60601FBD10B510BD15F013FC114629
:10826000FFF7EAFF0BF048F815F036FC03B4FFF710
:10827000F2FF03BC15F000FC72B6704762B670479F
:1082800008480047FEE7FEE7FEE7FEE7FEE7FEE7F9
:10829000FEE7FEE7FEE7FEE703480449044A054B14
:1082A000704700003181000850850020508B00206D
:1082B00050870020508700200020411EFE4A116098
:1082C0006FF07042FD49C1F884204FF0FF314FF04C
:1082D000E022C2F880126FF07042F9490A6000BFD4
:1082E00003E00022F7490A54401C3C28F9D37047A8
:1082F00010B512F0E5FD4FF4803012F000FE12F0E0
:108300003DFEF14908700846007801282AD1002076
:1083100012F079FE002012F088FE4FF4806012F017
:108320007BFE4FF4004012F09AFE102011F03EF94F
:10833000022011F027F94FF4E0114FF4803012F0D1
:1083400045FE012012F04EFE00BF392012F0FAFD6A
:108350000028FAD0022012F048FE00BF12F04EFEB4
:108360000828FBD101213C2012F012FF01218803D3
:1083700012F00EFF01214FF4F01012F016FF012150
:10838000084612F005FF0121480212F001FF012109
:10839000084612F0F0FE0121C80212F0F9FE012198
:1083A000042012F002FF0121480312F0F1FE012126
:1083B000022012F0FAFE0121084612F0F6FE012119
:1083C000480612F0F2FE10BD08B5FFF775FF4FF436
:1083D0000041080310F0BCF84FF4A06010F080F8E2
:1083E00025208DF8000002208DF8010000208DF876
:1083F000020001208DF80300684610F076F8262070
:108400008DF8000002208DF8010001208DF8020097
:108410008DF80300684610F068F827208DF80000FA
:1084200002208DF801008DF8020001208DF8030074
:10843000684610F05AF834208DF8000002208DF8BC
:1084400001008DF8020001208DF80300684610F04D
:108450004CF835208DF8000002208DF801008DF8D1
:10846000020001208DF80300684610F03EF80B2052
:108470008DF8000002208DF8010003208DF8020025
:1084800001208DF80300684610F02FF81E208DF8AB
:10849000000002208DF8010003208DF80200012069
:1084A0008DF80300684610F020F808BD70B542F260
:1084B0002831481EB0F1807F00D31BE0481E4FF0EA
:1084C000E022506150170F22002807DA13071D0E13
:1084D0007E4B00F00F04241F1D5503E013071C0EF4
:1084E000784B1C5400BF00204FF0E0229061072021
:1084F000106100BF6FF0040010F042F870BD1FB5AE
:108500000121092012F044FE4FF48040ADF808002C
:1085100004208DF80B0002A96D4811F031FB0E21EB
:10852000012011F031FC4FF48040009000208DF8C4
:1085300004000C208DF8050001208DF80600684627
:1085400010F09CFF28208DF80C0000208DF80D0005
:108550008DF80E0001208DF80F0003A80FF0C5FF65
:108560001FBD08B50121480412F01FFE0420ADF81C
:10857000000018208DF8030003208DF802006946E2
:10858000544811F0FDFA0820ADF8000004208DF8E1
:10859000030003208DF8020069464E4811F0F0FAFE
:1085A0004FF40060ADF8000004208DF803000320B4
:1085B0008DF802006946484811F0E2FA4FF48060F5
:1085C000ADF8000018208DF8030003208DF802009C
:1085D0006946414811F0D4FA4FF48060ADF80000CC
:1085E00004208DF8030003208DF802006946394805
:1085F00011F0C6FA4FF40070ADF8000018208DF8A5
:10860000030003208DF802006946324811F0B8FAE1
:1086100008BD7FB505460C46284613F0A7FC00941C
:108620000020ADF80400ADF80600ADF80800ADF884
:108630000C000C20ADF80A006946284613F0DFFC58
:108640000121284613F049FD012240F22551284618
:1086500013F04FFD012240F22661284613F049FD38
:108660007FBD08B51B4811F023FA194811F020FA14
:10867000194811F01DFA194811F01AFA4FF6FF7057
:10868000ADF8000004208DF8030003208DF80200EF
:108690006946104811F074FA4FF6FF70ADF800000B
:1086A00004208DF8030003208DF802006946084875
:1086B00011F066FA14E0000080E100E000E100E063
:1086C00084E200E000E400E01A00002018ED00E081
:1086D000000C01400008014000100140001401405E
:1086E0004FF6FF70ADF8000004208DF80300032062
:1086F0008DF802006946FA4811F042FA4FF6FF7011
:10870000ADF8000004208DF8030003208DF802006E
:108710006946F44811F034FA4FF44060ADF80000B7
:1087200014208DF8030003208DF802006946EE48FE
:1087300011F026FA4FF47070ADF8000010208DF89B
:10874000030003208DF802006946E54811F018FA8D
:1087500041F21800ADF8000010208DF8030003204E
:108760008DF802006946E04811F00AFA4FF4807073
:10877000ADF8000010208DF8030003208DF80200F2
:108780006946DA4811F0FCF90120ADF8000010202C
:108790008DF8030003208DF802006946D34811F0DC
:1087A000EFF94FF40070ADF8000010208DF80300D1
:1087B00003208DF802006946CB4811F0E1F94FF42F
:1087C0000040ADF8000010208DF8030003208DF864
:1087D00002006946C54811F0D3F90420ADF8000045
:1087E00028208DF8030003208DF802006946BD485B
:1087F00011F0C6F94FF48050ADF8000028208DF834
:10880000030003208DF802006946B54811F0B8F95D
:108810004FF40050ADF8000010208DF80300032045
:108820008DF802006946B04811F0AAF94FF40051E2
:10883000AD4811F052FA4FF48051AC4811F04DFAA6
:108840004FF40041A94811F048FA1021A64811F050
:1088500044FA0121A64811F062FA08BD00B58BB0B8
:10886000A44810F0DFFCA4480090A4480190002028
:108870000290082003900020049080200590400082
:1088800006908000079020200890000209900020A8
:108890000A906946974810F05EFD01220221954832
:1088A00010F08FFD0121934810F080FD0BB000BD4A
:1088B00000B589B04FF48070ADF8200018208DF815
:1088C000230003208DF8220008A9874811F058F9E9
:1088D0000220ADF814002020ADF8160042F6E0604A
:1088E000ADF818000020ADF81A008DF81C0005A99D
:1088F000834812F0C2FD6020ADF804000120ADF8FD
:1089000006000020ADF80A000220ADF80C0001A915
:108910007B4812F04CFE0821794813F07BF90122C4
:108920001146774813F04AF80121754813F02BF8E7
:1089300009B000BD704710B588B0002401210220A5
:1089400012F033FC0121092012F022FC01216D48B4
:1089500011F0E5F92020ADF81C0018208DF81F005B
:1089600003208DF81E0007A95F4811F009F94FF4A4
:108970006160ADF814000020ADF81000ADF81600ED
:108980002020ADF8120004A95F4812F076FD6020A7
:10899000ADF800000120ADF802000220ADF808009B
:1089A0006946594812F0B9FD0821574813F025F9D6
:1089B0000121554812F0E7FF4FF434742146524824
:1089C00013F092FA4FF40071474811F084F908B09F
:1089D00010BD00B587B04020ADF8180048208DF8D4
:1089E0001B0003208DF81A0006A93D4811F0C8F8B5
:1089F00040213B4811F071F94FF6FF70ADF80400CB
:108A00004720ADF800000020ADF80600ADF80200E8
:108A100069463E4812F031FD0020ADF80C000220FE
:108A2000ADF80E000120ADF810000020ADF81200E6
:108A3000ADF8140003A9354812F0FBFE0122022113
:108A4000324812F0BBFF0121304812F09CFF07B002
:108A500000BD704710B588B032240121480612F0DD
:108A6000A4FB4FF40060ADF8000048208DF803002F
:108A700069461E4811F084F84FF48050ADF80000AC
:108A800018208DF8030003208DF80200694617486E
:108A900011F076F81E480FF0FBFF05A810F015F94D
:108AA00000208DF8140001208DF8150000208DF8AD
:108AB00016008DF817008DF818008DF819008DF844
:108AC0001A008DF81B0002208DF81C0001208DF883
:108AD0001D00B4F57A7F1DD10620ADF81E0045E0DB
:108AE0000010014000140140000C0140000801404A
:108AF00000023000080002404C2401406C170020A6
:108B00000008004000081A00000400400034014042
:108B100000640040B4F5FA7F03D10C20ADF81E00CC
:108B200024E0FA2C03D11820ADF81E001EE07D2CA5
:108B300003D13020ADF81E0018E0642C03D13C2096
:108B4000ADF81E0012E0322C03D17820ADF81E00E3
:108B50000CE0142C04D14FF49670ADF81E0005E023
:108B60000A2C03D14FF41670ADF81E0005A9B548C4
:108B70000FF0A0FF00208DF804008DF80500012003
:108B80008DF806000020ADF80800ADF80A00ADF839
:108B90000C00ADF80E00ADF8100001208DF81200A9
:108BA00001A810F011F801220321A64810F09DF849
:108BB00008B010BD10B5FFF77BFEFFF7BCFE10BD7F
:108BC00000B587B004A812F0B9FE4FF4FA70ADF802
:108BD00014000720ADF810000020ADF81600ADF825
:108BE000120004A9984812F048FC6020ADF800007B
:108BF0000120ADF802000420ADF80400FA20ADF821
:108C000006000220ADF808000820ADF80A00400177
:108C1000ADF80C000020ADF80E0069468A4812F04D
:108C200045FC0121884812F0AEFE0121864812F071
:108C3000B6FE07B000BD00B587B0FFF70FFEFFF727
:108C4000BFFF0220ADF8040000208DF8070001A945
:108C50007E4810F095FF0320ADF8040000208DF849
:108C6000070001A97A4810F08BFF2F20ADF804000F
:108C700000208DF8070001A9764810F081FF002040
:108C8000029001208DF80C0000208DF80D0004905A
:108C9000059008208DF8180002A96F480FF0BBFC62
:108CA00001231A460C216C480FF04DFD01230222CE
:108CB0000B2169480FF047FD012303220D2166486F
:108CC0000FF041FD01230422082163480FF03BFD12
:108CD000012305220A2160480FF035FD01230622F9
:108CE00019465D480FF02FFD0123072209215A483C
:108CF0000FF029FD012308220F2157480FF023FD13
:108D0000012155480FF00CFE01231A460E2152484E
:108D10000FF0C5FD002214214F480FF00DFE4FF457
:108D2000E0414D480FF093FD01214B480FF0AAFCA4
:108D3000012149480FF063FD012147480FF097FCDE
:108D400045480FF0B6FC00BF43480FF0B7FC0028C1
:108D5000FAD141480FF0BCFC00BF3F480FF0BDFC0A
:108D60000028FAD107B000BD10B501214FF0C05066
:108D700012F01BFA012012F04EF80FF037FE01201E
:108D800012F08CF900BF612012F0DCF80028FAD054
:108D90004FF4007012F085F9012012F088F912F0FA
:108DA000C3FA12F0B9FA49F6404012F08FFA12F005
:108DB000B3FA10BD10B545F2555012F001F803207A
:108DC00012F001F840F6FF7012F000F812F001F80E
:108DD00010BD10B511F0FDFF10BD10B511F0FEFF74
:108DE00010BD10B545F2555011F0EAFF072011F003
:108DF000EAFF4FF4006011F0E9FF11F0EAFF11F013
:108E0000EDFF10BD10B511F0E4FF10BD10B54FF42B
:108E100000741249A1F2FC7013F094FF10BD10B55C
:108E2000FFF72AFAFFF764FAFFF71BFCFFF799FB3D
:108E3000FFF701FFFFF7BEFFFFF7BCFEFFF71EFACB
:108E400010BD000000640040002C014000080140FB
:108E5000000C01400010014000240140701000206F
:108E60002DE9F04106460D4600220023002016B9E8
:108E7000FE48A52301E0BDE8F08100BFB5F9007010
:108E80004FEAE77C07EB5C7C4FEAEC0100EB8207E2
:108E90007F888F4206DC00EB82077F8839B2571C3F
:108EA000FBB222E000EB83077F888F4206DB00EBFA
:108EB00083077F8839B25F1EFAB216E011E0D71837
:108EC0007C1000EB84077F888F4202D1671EFAB2C4
:108ED0000AE000EB84077F888F4201DD224600E034
:108EE0002346571C9F42EADB00BF30F9227000EB9B
:108EF000830CBCF802C0A1EB0C0C07FB0CF730F99B
:108F000023C000EB8208B8F80280A8EB01080CFB34
:108F1000087700EB820CBCF802C000EB8308B8F8BD
:108F20000280ACEB080C97FBFCF73FB22F8000BF30
:108F3000A1E72DE9F04106460D460022002300205E
:108F400016B9CB48A52301E0BDE8F08100BFB5F913
:108F500000704FEAE77C07EB5C7C4FEAEC0100EB2A
:108F600082077F888F4206DC00EB82077F8839B258
:108F7000571CFBB222E000EB83077F888F4206DBA1
:108F800000EB83077F8839B25F1EFAB216E011E06A
:108F9000D7187C1000EB84077F888F4202D1671EB0
:108FA000FAB20AE000EB84077F888F4201DD224697
:108FB00000E02346571C9F42EADB00BF30F92270D5
:108FC00000EB830CBCF802C0A1EB0C0C07FB0CF708
:108FD00030F923C000EB8208B8F80280A8EB010842
:108FE0000CFB087700EB820CBCF802C000EB830896
:108FF000B8F80280ACEB080C97FBFCF73FB22F806F
:1090000000BFA1E710B5FFF737F99A4800689A4901
:1090100008609A4800889A490880002095490860AD
:1090200096490880FFF72AF9FFF726F99548006866
:109030009549086095480088954908800020914925
:10904000086092490880FFF719F9FFF715F9914870
:109050000068914908609148008891490880002083
:109060008C4908608D490880FFF708F9844800881A
:1090700040B1814800688249098890FBF1F000B254
:10908000884908808248008840B17F48006880494C
:10909000098890FBF1F000B283490880804800887D
:1090A00038B17D4800687E490988B0FBF1F07F49FE
:1090B00008807C490020FFF7D3FE7B490020FFF7A2
:1090C00038FF10BD10B57A48008858B1784802883A
:1090D0000023784903C913F064FE04460BF08BFEAD
:1090E000754908807548008858B174480288002383
:1090F000734903C913F055FE04460BF07CFE714919
:1091000008807148008858B16F48028800236F4971
:1091100003C913F046FE04460BF06DFE6C4908804F
:109120006C48008858B16B48028800236A4903C91B
:1091300013F037FE04460BF05EFE6849088068486D
:10914000008858B1664802880023664903C913F0B5
:1091500028FE04460BF04FFE6349088063480088F0
:1091600058B1624802880023614903C913F019FE0F
:1091700004460BF040FE5F4908805F48008858B104
:109180005D48028800235D4903C913F00AFE0446C6
:109190000BF031FE5A4908805A48008858B15948A6
:1091A00002880023584903C913F0FBFD04460BF065
:1091B00022FE564908805648008858B15448028813
:1091C0000023544903C913F0ECFD04460BF013FED1
:1091D000514908805148008858B1504802880023FE
:1091E0004F4903C913F0DDFD04460BF004FE4D4961
:1091F000088010BD10B5014600200A4692110023D8
:109200000BE04FF6FF7404EA400012F0010F01D0AA
:1092100040F0010052105C1CE3B2032BF1DB10BDE7
:109220004148408800B24149088041488089098806
:10923000081A00B23D4908803D484089B1F9001044
:109240004843801200B2394908800846B0F900004E
:109250004043C117374B0CCB80185941354A03C2E4
:1092600035480088401C3449088067E06AEB0108F3
:1092700002EE0108400100204801002044010020C6
:109280004C010020540100205C0100205801002006
:109290006001002068010020700100206C010020A6
:1092A000740100205001002064010020780100209A
:1092B00058000020500000205C00002078000020B2
:1092C000700000207C000020D8000020D00000208A
:1092D000DC000020F8000020F0000020FC0000204E
:1092E00018010020100100201C010020980000201F
:1092F000900000209C000020380100203001002058
:109300003C010020B8000020B0000020BC0000207C
:10931000A8010020A0010020AC010020C80100200D
:10932000C0010020CC0100206C1700205A00002052
:10933000841300204000002048000020334880882B
:1093400000B2334908803348808A0988081A00B27D
:109350002F4908802F48408AB1F9001048438012F5
:1093600000B22B4908800846B0F900004043C117FD
:10937000294B0CCB80185941274A03C22748008843
:10938000401C264908802148C08800B22449088032
:109390002048008A0988081A00B2214908801D481F
:1093A000C089B1F900104843801200B21C490880FE
:1093B0000846B0F900004043C1171A4AD2E900320A
:1093C000C0185141174A03C217480088401C16496B
:1093D00008800E48C08900B21449088008460088F9
:1093E00000B20880084600884003801200B208805E
:1093F0000F480068B1F9001008440D4908600D4895
:109400000088401C0B490880704700006C17002042
:109410009A00002084130020800000208800002093
:109420003A010020200100202801002062010020D4
:10943000540100205801002000B58DB04FF4E130F8
:1094400009900020ADF82800ADF82A00ADF82C00F6
:10945000ADF82E000C20ADF83000FE4800680890F2
:109460004FF480700790FC480068069080200590BB
:10947000DDE90501CDE90301DDE90701CDE90101E0
:109480000C980090032009A90EC90EF0E3FB10B957
:1094900000200DB000BD0120FBE710B580200AF0D0
:1094A000BDF8ED4908600846006800B910BD4FF4EA
:1094B00080700AF0B3F8E74908600846006820B9F0
:1094C000E54800680AF0B0F8F0E780200AF0A6F856
:1094D000E24908600846006840B9DF4800680AF0C1
:1094E000A3F8DC4800680AF09FF8DFE74FF49D70AE
:1094F0000AF094F8DA4908604FF49D700AF08EF88B
:10950000D8490860D648006810B10846006860B9BC
:10951000D14800680AF088F8CE4800680AF084F85C
:10952000CE4800680AF080F8C0E7FFF785FFCEA0BC
:1095300003F0D9FF00BFB9E710B50446C84800687A
:1095400000F58370CE4909784454C548006890F806
:109550000601412844D1C248006890F80701542808
:109560003ED1C7480078401EBD49096801F58371A6
:10957000085C0D2834D1BA48006800F58370C049F2
:109580000978405C0A282BD10022B548006800F514
:109590008370BB490978491C42540E22B0480168C7
:1095A00001F58371B7A013F028FF30B90120B94944
:1095B0000870B9A003F097FF0EE00B22A8480168DD
:1095C00001F58371BAA013F018FF28B90020B14942
:1095D0000870BAA003F087FF0020A949087010BDE9
:1095E0009F48006890F80601412809D09C4800680F
:1095F00090F80701542803D00020A1490870EEE735
:109600009F480078401C9E49087000BFE7E710B5EE
:1096100002460B461078012103E0545C60404C1C6C
:10962000A1B29942F9DB10BDF0B5034600259D18A3
:109630000024002011E015F8016B704000240AE0BE
:1096400010F0010F04D04AF2010686EA600000E043
:109650004010661CB4B2082CF2DB0E00A1F1010729
:10966000B9B2E8D1F0BD30B504460D460022294616
:109670002046FFF7D9FF30BDF0B5A1B00027002587
:10968000002420229349684613F047FFC82004F0C5
:109690008AFA684613F092FE694601448E48826851
:1096A0000A60C0684860684613F088FE694608444E
:1096B0008AA109880180FA222146641C08A8425424
:1096C00003222146641C425400222146641C425459
:1096D0002146641C425401222146641C425400224B
:1096E0002146641C425423222146641C4254002219
:1096F0002146641C425401222146641C425420220B
:109700002146641C425400222146641C425468468F
:1097100013F054FE064608A908193246694613F0AC
:10972000B7FE684613F04AFE204484B2684613F040
:1097300045FEC0F1200608A90819314613F027FF9D
:10974000684613F03BFEC0F12000204484B221465D
:1097500008A8FFF788FF05462046611C8CB208A9BF
:109760000D542A0A2046611C8CB208A90A542146CD
:1097700008A801F037FC694659A003F0B4FE21B0F7
:10978000F0BD70B58AB0002400260AF047F90546FE
:10979000FA222146641C0DF8012003222146641C94
:1097A0000DF8012000222146641C0DF801202146FD
:1097B000641C0DF8012001222146641C0DF80120D3
:1097C00000222146641C0DF8012009222146641C58
:1097D0000DF8012000222146641C0DF8012005220D
:1097E0002146641C0DF8012006222146641C0DF858
:1097F000012000222146641C0DF801202A78214610
:10980000641C0DF801206A782146641C0DF80120C3
:10981000AA782146641C0DF80120EA782146641CD0
:109820000DF801202A792046611C8CB20DF8002029
:109830006A792046611C8CB20DF8002021466846EA
:10984000FFF711FF0646F2B22046611C8CB20DF8FC
:10985000002051E0F8010020F4010020FC0100206C
:1098600000020020040200205B626C655D20626CD7
:10987000655F7561727420696E69742E2E2E0A0000
:10988000A802002041542B434F4E3D5355434345BE
:1098900053530000AE1700205B626C655D52583A6E
:1098A000626C655F636F6E6E6563740A0000000032
:1098B00041542B434F4E3D53544F50005B626C65F7
:1098C0005D52583A626C655F646973636F6E6E6572
:1098D00063740A00A8F001083E1100200D0A000080
:1098E0005B626C655D73657420626C65206E616D92
:1098F000652D3E25730A0000320A2046611C8CB299
:109900000DF800202146684601F06CFB0AB070BDDE
:1099100070B58AB0002400250AF080F80646FA22C5
:109920002146641C0DF8012003222146641C0DF819
:10993000012000222146641C0DF801202146641CF0
:109940000DF8012001222146641C0DF8012000229F
:109950002146641C0DF8012004222146641C0DF8E8
:10996000012000222146641C0DF801200622214618
:10997000641C0DF8012001222146641C0DF8012011
:1099800000222146641C0DF80120FE4890F82900B1
:10999000012806D101222046611C8CB20DF800205E
:1099A00005E000222046611C8CB20DF80020214603
:1099B0006846FFF758FE0546EAB22046611C8CB2A5
:1099C0000DF800202A0A2046611C8CB20DF80020F8
:1099D0002146684601F006FB0AB070BD2DE9F04F44
:1099E0008DB080468A46914600240025A346002774
:1099F0000AF014F806460AF0C4F80746FA2221468F
:109A0000641C0DF8012003222146641C0DF801207E
:109A100000222146641C0DF801202146641C0DF82B
:109A2000012006222146641C0DF801200022214657
:109A3000641C0DF8012015222146641C0DF801203C
:109A400000222146641C0DF8012032782146641C56
:109A50000DF8012072782146641C0DF80120B278BF
:109A60002146641C0DF80120F2782146641C0DF893
:109A7000012032792146641C0DF8012072792146BB
:109A8000641C0DF80120C04890F844202146641C55
:109A90000DF80120B0F84400C0F307222046611CF5
:109AA0008CB20DF80020B848406CC0F30742204645
:109AB000611C8CB20DF80020B9F1000F06D16422B0
:109AC0002046611C8CB20DF8002010E0B9F1010FA6
:109AD00006D165222046611C8CB20DF8002006E0FC
:109AE000AA4842782046611C8CB20DF80020FAB2D8
:109AF0002046611C8CB20DF80020C7F307222046D7
:109B0000611C8CB20DF80020C7F307422046611C8F
:109B10008CB20DF800203A0E2046611C8CB20DF874
:109B200000209A4890F82500012802D145F001054F
:109B300001E025F00105B8F1000F02D105F0F005B4
:109B400007E0B8F1020F02D145F0020501E045F04F
:109B50000105BAF1010F02D145F0100501E025F031
:109B600010052046611C8CB20DF800500021032026
:109B70000BF0F8F920B9002102200BF0F3F978B1CD
:109B80008248027B2046611C8CB20DF800207F4881
:109B90008089020A2046611C8CB20DF800200BE07F
:109BA00000BF00222046611C8CB20DF80020204628
:109BB000611C8CB20DF80020002104200BF0D2F9BA
:109BC000B8B17248408A0A2190FBF1F0C2B2204637
